{
  "contractName": "EthAvatar",
  "abi": [
    {
      "constant": false,
      "inputs": [
        {
          "name": "hash",
          "type": "string"
        }
      ],
      "name": "setIPFSHash",
      "outputs": [],
      "payable": false,
      "stateMutability": "nonpayable",
      "type": "function"
    },
    {
      "constant": true,
      "inputs": [
        {
          "name": "hashAddress",
          "type": "address"
        }
      ],
      "name": "getIPFSHash",
      "outputs": [
        {
          "name": "",
          "type": "string"
        }
      ],
      "payable": false,
      "stateMutability": "view",
      "type": "function"
    },
    {
      "anonymous": false,
      "inputs": [
        {
          "indexed": true,
          "name": "hashAddress",
          "type": "address"
        },
        {
          "indexed": false,
          "name": "hash",
          "type": "string"
        }
      ],
      "name": "DidSetIPFSHash",
      "type": "event"
    }
  ],
  "abi2": [
    {
      "anonymous": false,
      "inputs": [
        {
          "indexed": true,
          "name": "hashAddress",
          "type": "address"
        },
        {
          "indexed": false,
          "name": "hash",
          "type": "string"
        }
      ],
      "name": "DidSetIPFSHash",
      "type": "event",
      "signature": "0x3ad00a2153f5aa93fde4e185fe1fdbf9a5504e110816d08da5fe39fbe7cec83e"
    },
    {
      "constant": false,
      "inputs": [
        {
          "name": "hash",
          "type": "string"
        }
      ],
      "name": "setIPFSHash",
      "outputs": [],
      "payable": false,
      "stateMutability": "nonpayable",
      "type": "function",
      "signature": "0xb8a76f54"
    },
    {
      "constant": true,
      "inputs": [
        {
          "name": "hashAddress",
          "type": "address"
        }
      ],
      "name": "getIPFSHash",
      "outputs": [
        {
          "name": "",
          "type": "string"
        }
      ],
      "payable": false,
      "stateMutability": "view",
      "type": "function",
      "signature": "0xcb0ab425"
    }
  ],
  "bytecode": "0x608060405234801561001057600080fd5b5061049d806100206000396000f3fe60806040526004361061004c576000357c0100000000000000000000000000000000000000000000000000000000900463ffffffff168063b8a76f5414610051578063cb0ab42514610119575b600080fd5b34801561005d57600080fd5b506101176004803603602081101561007457600080fd5b810190808035906020019064010000000081111561009157600080fd5b8201836020820111156100a357600080fd5b803590602001918460018302840111640100000000831117156100c557600080fd5b91908080601f016020809104026020016040519081016040528093929190818152602001838380828437600081840152601f19601f8201169050808301925050505050505091929192905050506101e3565b005b34801561012557600080fd5b506101686004803603602081101561013c57600080fd5b81019080803573ffffffffffffffffffffffffffffffffffffffff1690602001909291905050506102ec565b6040518080602001828103825283818151815260200191508051906020019080838360005b838110156101a857808201518184015260208101905061018d565b50505050905090810190601f1680156101d55780820380516001836020036101000a031916815260200191505b509250505060405180910390f35b806000803373ffffffffffffffffffffffffffffffffffffffff1673ffffffffffffffffffffffffffffffffffffffff16815260200190815260200160002090805190602001906102359291906103cc565b503373ffffffffffffffffffffffffffffffffffffffff167f3ad00a2153f5aa93fde4e185fe1fdbf9a5504e110816d08da5fe39fbe7cec83e826040518080602001828103825283818151815260200191508051906020019080838360005b838110156102af578082015181840152602081019050610294565b50505050905090810190601f1680156102dc5780820380516001836020036101000a031916815260200191505b509250505060405180910390a250565b60606000808373ffffffffffffffffffffffffffffffffffffffff1673ffffffffffffffffffffffffffffffffffffffff1681526020019081526020016000208054600181600116156101000203166002900480601f0160208091040260200160405190810160405280929190818152602001828054600181600116156101000203166002900480156103c05780601f10610395576101008083540402835291602001916103c0565b820191906000526020600020905b8154815290600101906020018083116103a357829003601f168201915b50505050509050919050565b828054600181600116156101000203166002900490600052602060002090601f016020900481019282601f1061040d57805160ff191683800117855561043b565b8280016001018555821561043b579182015b8281111561043a57825182559160200191906001019061041f565b5b509050610448919061044c565b5090565b61046e91905b8082111561046a576000816000905550600101610452565b5090565b9056fea165627a7a723058204cc3988fe9ff1f55a22bf74bdacba9d1107540e6bcc603721bd09d66ad9c81480029",
  "source": "pragma solidity >=0.4.19;\n\ncontract EthAvatar {\n    mapping (address => string) private ipfsHashes;\n\n    event DidSetIPFSHash(address indexed hashAddress, string hash);\n\n\n    function setIPFSHash(string memory hash) public {\n        ipfsHashes[msg.sender] = hash;\n\n        emit DidSetIPFSHash(msg.sender, hash);\n    }\n\n    function getIPFSHash(address hashAddress) public view returns (string memory) {\n        return ipfsHashes[hashAddress];\n    }\n}\n",
  "sourcePath": "/Users/tomsoft/Documents/tests/ethava/contracts/EthAvatar.sol",
  "compiler": {
    "name": "solc",
    "version": "0.5.0+commit.1d4f565a.Emscripten.clang"
  },
  "schemaVersion": "3.0.6",
  "updatedAt": "2019-05-24T20:48:56.907Z",
  "devdoc": {
    "methods": {}
  },
  "userdoc": {
    "methods": {}
  }
}